:020000040800F2
:1000000000500020191400084D0200084F0200089B
:1000100051020008530200085502000800000000C9
:10002000000000000000000000000000570200086F
:1000300059020008000000005B0200085D02000891
:1000400061140008611400086114000861140008BC
:1000500061140008611400086114000861140008AC
:10006000611400086114000861140008611400089C
:10007000611400086114000861140008611400088C
:10008000611400086114000861140008611400087C
:10009000611400086114000861140008611400086C
:1000A000611400086114000861140008611400085C
:1000B000611400086114000861140008611400084C
:1000C000611400086114000861140008611400083C
:1000D000611400086114000865020008611400083A
:1000E0006114000861140008611400080000000099
:1000F0000000000000000000000000000000000000
:0C01000000000000000000005FF808F1A3
:10010C0010B5054C237833B9044B13B10448AFF345
:10011C0000800123237010BD14000020000000009B
:10012C00BC14000808B5034B1BB103490348AFF3DB
:10013C00008008BD0000000018000020BC1400085E
:10014C0082B0064B9A6942F004029A619B6903F0F3
:10015C0004030193019B02B0704700BF00100240E2
:10016C0008B50848084B03604FF4E13343600023A3
:10017C008360C36003610C2242618361C36100F040
:10018C0022FA08BD3C0000200044004010B590B09D
:10019C002422002107A801F083F900240194029481
:1001AC000394049405940223069301230A931023C9
:1001BC000B9306A800F04CFC0F23019302940394BC
:1001CC0004940594214601A800F068FE10B010BDFF
:1001DC0008B500F003FCFFF7D9FFFFF7B1FFFFF7FD
:1001EC00BFFF064C01220649204600F0AFFA072259
:1001FC000449204600F086FAFEE700BF3C000020D0
:10020C00300000200000002038B50268084B9A42EC
:10021C0000D038BD074D084C6423012229462046E6
:10022C0000F000FA01222946204600F08FFAF0E790
:10023C0000440040300000203C00002000BF70470C
:10024C007047FEE7FEE7FEE7FEE770477047704732
:10025C0008B500F0D5FB08BD08B5024800F000FB5E
:10026C0008BD00BF3C00002082B00E4B9A6942F0E2
:10027C0001029A619A6902F001020092009ADA690D
:10028C0042F08052DA61DB6903F080530193019BE9
:10029C00054A536823F0E06343F08063536002B077
:1002AC00704700BF001002400000014030B587B01D
:1002BC000023029303930493059302681B4B9A4209
:1002CC0001D007B030BD03F5E633DA6942F40032F1
:1002DC00DA61DA6902F400320092009A9A6942F00B
:1002EC0004029A619B6903F004030193019B0423AC
:1002FC00029302230393032305930D4D02A9284671
:10030C0000F0C0FE082302930024039404940DEB28
:10031C000301284600F0B6FE22462146262000F0B6
:10032C00F9FF262001F02AF8CBE700BF004400407B
:10033C00000801400268D36823F49073D36002680C
:10034C00536923F001035361202380F83A3070473E
:10035C0090F83930DBB2212B2AD18368B3F5805F5A
:10036C0016D0036A5A1C02621A7803685A60C38C4E
:10037C00013B9BB2C384EBB90268D36823F08003C2
:10038C00D3600268D36843F04003D3600020704709
:10039C00036A1B880268C3F30803536003691BB923
:1003AC00036A02330362E2E7036A01330362DEE7A6
:1003BC0002207047002070472DE9F843054602687B
:1003CC00136923F44053C1680B43136183680269BA
:1003DC001343426913430168CA6822F4B05222F0F5
:1003EC000C021343CB600268536923F44073816998
:1003FC000B4353610268594B9A4257D000F022FECE
:10040C0000EB800000EB80006C68A400B0FBF4F4FF
:10041C00534FA7FB04346409260100F013FE00EBD4
:10042C00800000EB80006C68A400B0FBF4F900F0D5
:10043C0009FE00EB800000EB80006C68A400B0FBB0
:10044C00F4F4A7FB043464094FF0640808FB14941B
:10045C0024013234A7FB0434640904F0F00434445E
:10046C0000F0F0FD00EB800000EB80006E68B60041
:10047C00B0FBF6F600F0E6FD00EB800000EB800030
:10048C006B689B00B0FBF3F0A7FB0030400908FB46
:10049C0010684FEA081808F13208A7FB0837C7F3B1
:1004AC0043172B6827449F60BDE8F88300F0DAFD02
:1004BC0000EB800000EB80006C68A400B0FBF4F44F
:1004CC00274FA7FB04346409260100F0CBFD00EB99
:1004DC00800000EB80006C68A400B0FBF4F900F025
:1004EC00C1FD00EB800000EB80006C68A400B0FB49
:1004FC00F4F4A7FB043464094FF0640808FB14946B
:10050C0024013234A7FB0434640904F0F0043444AD
:10051C0000F0A8FD00EB800000EB80006E68B600D8
:10052C00B0FBF6F600F09EFD00EB800000EB8000C7
:10053C006B689B00B0FBF3F0A7FB0030400908FB95
:10054C0010684FEA081808F13208A7FB0837C7F300
:10055C0043172B6827449F60A6E700BF0038014073
:10056C001F85EB512DE9F04105460F46164698467E
:10057C00069C2B681B6837EA03030CBF012300237E
:10058C00B3421DD1B4F1FF3FF3D02CB100F044FACB
:10059C00A0EB0800A042ECD92A68D36823F4D073EE
:1005AC00D3602A68536923F001035361202385F833
:1005BC00393085F83A30002385F83830032000E0D4
:1005CC000020BDE8F08158B310B5044690F83930DE
:1005DC000BB3242384F839302268D36823F40053F6
:1005EC00D3602046FFF7E8FE2268136923F490439A
:1005FC0013612268536923F02A0353612268D3687C
:10060C0043F40053D3600020E063202384F8393096
:10061C0084F83A3010BD80F83830FFF747FED8E741
:10062C00012070472DE9F04182B01E4690F8393018
:10063C00DBB2202B55D104460D469046002955D0EF
:10064C00002A55D090F83830012B53D0012380F874
:10065C0038300023C363212380F8393000F0DCF9F3
:10066C000746A4F82480A4F8268010E000963B46A8
:10067C00002280212046FFF775FF00283CD12B88F3
:10068C002268C3F3080353602369C3B90235E38CB2
:10069C009BB2B3B1E38C013B9BB2E384A368B3F58B
:1006AC00805FE3D000963B46002280212046FFF776
:1006BC0059FF18BB2A7823685A600135E7E70135E2
:1006CC00E5E700963B46002240212046FFF74AFF13
:1006DC000346A8B9202284F83920002284F8382057
:1006EC0000E00223184602B0BDE8F0810123F9E7CF
:1006FC000123F7E70223F5E70323F3E70323F1E7ED
:10070C000323EFE790F83930DBB2202B16D1B9B1C7
:10071C00C2B190F83830012B16D001628284C284A9
:10072C000023C363212280F8392080F83830016817
:10073C00CA6842F08002CA601846704702207047AF
:10074C0001207047012070470220704790F83A3022
:10075C00DBB2202B20D109B312B390F83830012B27
:10076C0020D081628285C2850023C363222280F857
:10077C003A2080F838300168CA6842F48072CA6046
:10078C0001684A6942F001024A610168CA6842F094
:10079C002002CA601846704702207047012070473B
:1007AC00012070470220704708B50168CB6823F020
:1007BC004003CB60202380F83930FFF73FFD002049
:1007CC0008BD08B590F83A30DBB2222B45D18368CE
:1007DC00B3F5805F0ED0036903BB03685A68836A64
:1007EC00591C81621A70C38D013B9BB2C385F3B156
:1007FC00002033E0826A036943B903685B68C3F382
:10080C0008031380836A02338362ECE703685B6836
:10081C00DBB21380836A01338362E4E703685B68AD
:10082C00826A511C816203F07F031370DBE702685C
:10083C00D36823F02003D3600268D36823F4807359
:10084C00D3600268536923F001035361202380F8BD
:10085C003A30FFF7D9FC002000E0022008BD7047B9
:10086C0010B5044602681368D168526913F00F0082
:10087C0005D113F0200F02D011F0200F53D1002816
:10088C0067D012F0010202D111F4907F61D013F005
:10089C00010F06D011F4807F03D0E06B40F0010013
:1008AC00E06313F0040F04D01AB1E06B40F00200C7
:1008BC00E06313F0020F04D01AB1E06B40F00400B7
:1008CC00E06313F0080F04D01AB1E26B42F0080297
:1008DC00E263E26B002A48D013F0200F02D011F033
:1008EC00200F24D123685B6903F04003E26B12F004
:1008FC00080F00D13BB32046FFF71CFD23685A6953
:10090C0012F0400F1BD05A6922F040025A61636BFF
:10091C008BB11A4A5A63606B00F09EFC28B3606B73
:10092C00436B984721E02046FFF74BFF1DE0204624
:10093C00FFF747FFD6E72046FFF791FF15E020466B
:10094C00FFF78DFF11E02046FFF789FF0023E363DB
:10095C000BE013F0800F02D011F0800F06D113F0D2
:10096C00400F02D011F0400F04D110BD2046FFF70C
:10097C00EFFCFAE72046FFF717FFF6E78D090008B2
:10098C0008B5406A0023C385C384FFF768FF08BD20
:10099C0010B504460E4B18784FF47A73B3FBF0F392
:1009AC000C4A1068B0FBF3F000F0F4FC68B90F2CA3
:1009BC0001D901200AE0002221464FF0FF3000F05F
:1009CC00A9FC054B1C60002000E0012010BD00BFFD
:1009DC0009000020100000200C00002008B5074A78
:1009EC00136843F010031360032000F081FC002017
:1009FC00FFF7CEFFFFF738FC002008BD00200240B7
:100A0C00034A1168034B1B780B441360704700BFFB
:100A1C007C00002009000020014B1868704700BFC3
:100A2C007C00002082B0084B1B68084AA2FB032301
:100A3C005B0A00FB03F0019000BF019B5A1E019260
:100A4C00002BF9D102B0704710000020D34D62107A
:100A5C0070B582B00446036813F0010F2CD0AB4B79
:100A6C005B6803F00C03042B1DD0A84B5B6803F0F0
:100A7C000C03082B12D06368B3F5803F41D0002BD8
:100A8C0055D103F1804303F504331A6822F4803204
:100A9C001A601A6822F480221A6037E09B4B5B685C
:100AAC0013F4803FE7D0994B1B6813F4003F03D03D
:100ABC006368002B00F0AE81236813F0020F76D030
:100ACC00924B5B6813F00C0F5FD0904B5B6803F09C
:100ADC000C03082B54D02369002B00F08A808C4B1C
:100AEC0001221A60FFF798FF0546884B1B6813F02C
:100AFC00020F75D1FFF790FF401B0228F5D9032098
:100B0C008BE1824A136843F480331360636843B308
:100B1C00FFF782FF05467D4B1B6813F4003FCBD1DA
:100B2C00FFF77AFF401B6428F5D9032075E1B3F574
:100B3C00A02F09D0754B1A6822F480321A601A68FB
:100B4C0022F480221A60E1E703F18043A3F53C33E1
:100B5C001A6842F480221A601A6842F480321A60D1
:100B6C00D4E7FFF759FF0546684B1B6813F4003FA9
:100B7C00A2D0FFF751FF401B6428F5D903204CE1AC
:100B8C00624B5B6813F4803FA5D1604B1B6813F07C
:100B9C00020F04D02369012B01D001203DE15B4AF7
:100BAC00136823F0F803616943EAC10313602368F7
:100BBC0013F0080F32D0A369002B5BD0554B0122E8
:100BCC001A60FFF729FF0546504B5B6A13F0020FC2
:100BDC0021D1FFF721FF401B0228F5D903201CE18E
:100BEC004A4A136823F0F803616943EAC1031360AE
:100BFC00DDE7474B00221A60FFF70EFF0546434B1B
:100C0C001B6813F0020FD2D0FFF706FF401B02281F
:100C1C00F5D9032001E10120FFF704FF236813F04D
:100C2C00040F00F09780394BDB6913F0805F33D1F0
:100C3C00364BDA6942F08052DA61DB6903F080539B
:100C4C000193019B0125344B1B6813F4807F25D045
:100C5C00E368012B36D0002B4CD103F1804303F514
:100C6C0004331A6A22F001021A621A6A22F0040290
:100C7C001A622CE0274B00221A60FFF7CDFE0546C6
:100C8C00224B5B6A13F0020FC8D0FFF7C5FE401B66
:100C9C000228F5D90320C0E00025D4E71E4A1368CA
:100CAC0043F480731360FFF7B7FE06461A4B1B68BC
:100CBC0013F4807FCCD1FFF7AFFE801B6428F5D9ED
:100CCC000320AAE0114A136A43F001031362E3689C
:100CDC0073B3FFF7A1FE06460C4B1B6A13F0020F11
:100CEC0037D1FFF799FE801B41F288339842F3D934
:100CFC00032092E0052B11D0044B1A6A22F001025A
:100D0C001A621A6A22F004021A62E0E7001002402A
:100D1C00000042428004424200700040414B1A6A7B
:100D2C0042F004021A621A6A42F001021A62CEE719
:100D3C00FFF772FE06463B4B1B6A13F0020F08D0FE
:100D4C00FFF76AFE801B41F288339842F3D90320E7
:100D5C0063E0E5B9E369002B5ED0324A526802F0D9
:100D6C000C02082A5BD0022B17D02F4B00221A60E2
:100D7C00FFF752FE04462B4B1B6813F0007F47D045
:100D8C00FFF74AFE001B0228F5D9032045E0254A4F
:100D9C00D36923F08053D361DCE7234B00221A6024
:100DAC00FFF73AFE05461F4B1B6813F0007F06D079
:100DBC00FFF732FE401B0228F5D903202DE0236AF1
:100DCC00B3F5803F1AD017494B6823F47413226A89
:100DDC00606A024313434B60134B01221A60FFF706
:100DEC001BFE04460F4B1B6813F0007F0ED1FFF760
:100DFC0013FE001B0228F5D903200EE0094A5368A4
:100E0C0023F40033A1680B435360DCE7002004E0BB
:100E1C00002002E0012000E0002002B070BD0120A3
:100E2C00FBE700BF001002406000424210B487B0E4
:100E3C00164C94E80F000DF1180C0CE90F00238AE6
:100E4C00ADF80430124B5B6803F00C02082A1AD17F
:100E5C00C3F38342624412F8102C13F4803F05D183
:100E6C000C4800FB02F007B010BC7047084B5B68E5
:100E7C00C3F34043634413F8143C074800FB02F0EF
:100E8C00B0FBF3F0EFE70448EDE700BFD414000823
:100E9C000010024000093D0000127A00624B1B68F2
:100EAC0003F007038B420CD25F4A136823F007034D
:100EBC000B431360136803F007038B4201D001202E
:100ECC00704770B5036813F0020F17D013F0040FBE
:100EDC0004D0564A536843F4E0635360036813F03C
:100EEC00080F04D0514A536843F4605353604F4A7F
:100EFC00536823F0F0038468234353600D46044683
:100F0C00036813F0010F52D04368012B23D0022B3E
:100F1C0028D0464A126812F0020F00F08280434932
:100F2C004A6822F0030213434B60FFF775FD064637
:100F3C006368012B1DD0022B2AD03C4B5B6813F04D
:100F4C000C0F34D0FFF768FD801B41F288339842B8
:100F5C00F3D9032064E0354A126812F4003FDED165
:100F6C0001205DE0314A126812F0007FD7D10120D8
:100F7C0056E02E4B5B6803F00C03042B17D0FFF7E5
:100F8C004BFD801B41F288339842F2D9032047E095
:100F9C00264B5B6803F00C03082B08D0FFF73CFDD5
:100FAC00801B41F288339842F2D9032038E01E4B63
:100FBC001B6803F00703AB420CD91B4A136823F0E0
:100FCC0007032B431360136803F00703AB4201D0F4
:100FDC00012025E0236813F0040F06D0134A536850
:100FEC0023F4E063E1680B435360236813F0080FAC
:100FFC0007D00E4A536823F46053216943EAC103B6
:10100C005360FFF713FF094B5B68C3F30313084AE4
:10101C00D35CD840074B18600020FFF7B9FC0020C8
:10102C0070BD0120FCE700BF002002400010024010
:10103C00E814000810000020014B1868704700BF2E
:10104C001000002008B5FFF7F7FF044B5B68C3F3F3
:10105C000223034AD35CD84008BD00BF00100240F5
:10106C00F814000808B5FFF7E7FF044B5B68C3F3FF
:10107C00C223034AD35CD84008BD00BF0010024015
:10108C00F8140008F0B482B000263546A1E0002C1C
:10109C0059D0012C00D1CE68FF2B68D88446FF2B89
:1010AC0068D8AC00DCF800200F27A74022EA070222
:1010BC0006FA04F42243CCF800204A6812F0805F50
:1010CC0000F086805E4A946944F001049461926950
:1010DC0002F001020192019AAC08A71C594A52F87D
:1010EC00272005F00307BF004FF00F0C0CFA07FC8C
:1010FC0022EA0C0C544A904242D002F58062904293
:10110C007FD002F5806290427DD002F580629042E1
:10111C0034D0042235E04D4FBC4214D00BD94C4F87
:10112C00BC4210D007F58037BC420CD0A7F5801715
:10113C00BC42B1D107E0A7F58017BC4203D007F53C
:10114C008037BC42A8D18C687CB1012C08D042619C
:10115C000826A1E7CE6808369EE7CE680C369BE7DA
:10116C000261082698E7002696E7042694E700F12A
:10117C00040C94E7A5F10804A40093E7032200E013
:10118C000022BA4042EA0C0202342E4F47F82420C7
:10119C004A6812F4803F38D02E4C22681A432260E1
:1011AC004A6812F4003F36D02A4C62681A436260D7
:1011BC004A6812F4801F34D0264CA2681A43A260ED
:1011CC004A6812F4001F32D0224CE2681343E360E9
:1011DC0001350F2D31D80122AA400B6813409A42D9
:1011EC00F6D14C68122CB8D095D8022CB2D07FF620
:1011FC004EAF032CB7D0112C7FF44EAFCE68043613
:10120C004AE70122BDE70222BBE7124C226822EA20
:10121C0003022260C4E70F4C626822EA0302626098
:10122C00C6E70C4CA26822EA0302A260C8E7094C8C
:10123C00E26822EA0303E360CAE702B0F0BC70473D
:10124C000010024000000140000801400000211085
:10125C00000031100004014008B590F82130022B39
:10126C0003D004238363012008BD0268136823F0B4
:10127C000E0313600268136823F001031360036804
:10128C00194A934214D0143293421FD01432934211
:10129C001ED0143293421ED0143293421ED01432FC
:1012AC00934202D04FF0807203E04FF4801200E0C2
:1012BC0001220E4B5A60012380F82130002380F864
:1012CC002030436B6BB198470020CDE71022F0E73C
:1012DC004FF48072EDE74FF48052EAE74FF480321E
:1012EC00E7E70020C0E700BF080002400000024012
:1012FC00074AD36823F4E0631B041B0C000200F4C0
:10130C00E060184340F0BF6040F40030D06070479C
:10131C0000ED00E030B4174BDB68C3F30223C3F1DC
:10132C000704042C28BF04241D1D062D18D9033BCB
:10133C004FF0FF3505FA04F421EA0401994005FA4F
:10134C0003F322EA0303194300280BDB0901C9B29A
:10135C0000F1604000F5614080F8001330BC70472C
:10136C000023E5E700F00F000901C9B2024B195444
:10137C00F4E700BF00ED00E014ED00E000F01F0208
:10138C00400901239340024A42F82030704700BFC5
:10139C0000E100E00138B0F1807F0AD2064B5860C2
:1013AC00064AF02182F823100020986007221A6068
:1013BC0070470120704700BF10E000E000ED00E036
:1013CC000F4B1A6842F001021A6059680D4A0A4024
:1013DC005A601A6822F0847222F480321A601A68F9
:1013EC0022F480221A605A6822F4FE025A604FF4EA
:1013FC001F029A60044B4FF000629A60704700BF66
:10140C00001002400000FFF800ED00E0002103E0B6
:10141C000B4B5B58435004310A480B4B42189A4211
:10142C00F6D30A4A02E0002342F8043B084B9A42E6
:10143C00F9D3FFF7C5FF00F00FF8FEF7C9FE7047B0
:10144C0008150008000000201400002014000020E3
:10145C0080000020FEE7000070B500250C4E0D4CFE
:10146C00A41BA410A54209D100F022F800250A4EB5
:10147C000A4CA41BA410A54205D170BD56F825300A
:10148C0098470135EEE756F8253098470135F2E7D5
:10149C0000150008001500080015000804150008C8
:1014AC0003460244934200D1704703F8011BF9E74D
:1014BC00F8B500BFF8BC08BC9E467047F8B500BF35
:0814CC00F8BC08BC9E46704705
:1014D40002030405060708090A0B0C0D0E0F101071
:1014E40001020000000000000000000001020304EB
:0C14F400060708090000000001020304C4
:0415000031010008AD
:041504000D010008CD
:1015080048656C6C6F203E20000100001000000050
:0415180000A24A04DF
:0400000508001419C2
:00000001FF
